{"abi":[{"type":"function","name":"FEE_PERCENTAGE","inputs":[],"outputs":[{"name":"","type":"uint256","internalType":"uint256"}],"stateMutability":"view"},{"type":"function","name":"OWNER","inputs":[],"outputs":[{"name":"","type":"address","internalType":"address"}],"stateMutability":"view"},{"type":"function","name":"sendPayment","inputs":[{"name":"receiver","type":"address","internalType":"address payable"}],"outputs":[],"stateMutability":"payable"},{"type":"event","name":"PaymentSent","inputs":[{"name":"receiver","type":"address","indexed":true,"internalType":"address"},{"name":"paymentAmount","type":"uint256","indexed":true,"internalType":"uint256"},{"name":"feesPaid","type":"uint256","indexed":true,"internalType":"uint256"},{"name":"amountSentToReceiver","type":"uint256","indexed":false,"internalType":"uint256"}],"anonymous":false},{"type":"error","name":"Payment__FailedToSendEther","inputs":[]},{"type":"error","name":"Payment__InvalidReceiverAddress","inputs":[]},{"type":"error","name":"Payment__PaymentAmountMustBeGreaterThanZero","inputs":[]}],"bytecode":{"object":"0x608060405234801561001057600080fd5b50610332806100206000396000f3fe6080604052600436106100335760003560e01c80620b46f814610038578063117803e3146100605780638a7644a8146100a0575b600080fd5b34801561004457600080fd5b5061004d600381565b6040519081526020015b60405180910390f35b34801561006c57600080fd5b506100887361ec9cbc365b23ec035986a30fded12e94756b3b81565b6040516001600160a01b039091168152602001610057565b6100b36100ae366004610264565b6100b5565b005b6001600160a01b0381166100dc5760405163efcff6a960e01b815260040160405180910390fd5b346000036100fd57604051639e55ab0960e01b815260040160405180910390fd5b6000606461010c6003346102aa565b61011691906102c7565b6040519091506000907361ec9cbc365b23ec035986a30fded12e94756b3b9083908381818185875af1925050503d806000811461016f576040519150601f19603f3d011682016040523d82523d6000602084013e610174565b606091505b505090508061019657604051639fb8bc1760e01b815260040160405180910390fd5b60006101a283346102e9565b90506000846001600160a01b03168260405160006040518083038185875af1925050503d80600081146101f1576040519150601f19603f3d011682016040523d82523d6000602084013e6101f6565b606091505b505090508061021857604051639fb8bc1760e01b815260040160405180910390fd5b8334866001600160a01b03167fa64341ba2082dab9772201174682f4e48b10a32898404f4327d3d22a0451e42e8560405161025591815260200190565b60405180910390a45050505050565b60006020828403121561027657600080fd5b81356001600160a01b038116811461028d57600080fd5b9392505050565b634e487b7160e01b600052601160045260246000fd5b80820281158282048414176102c1576102c1610294565b92915050565b6000826102e457634e487b7160e01b600052601260045260246000fd5b500490565b818103818111156102c1576102c161029456fea264697066735822122048f30551100755052332bfb92adb4ed0b8a263c1047a61efa9146c70a654513764736f6c63430008170033","linkReferences":{}},"methodIdentifiers":{"FEE_PERCENTAGE()":"000b46f8","OWNER()":"117803e3","sendPayment(address)":"8a7644a8"},"id":20}