{"abi":[{"type":"fallback","stateMutability":"payable"},{"type":"receive","stateMutability":"payable"},{"type":"function","name":"FEE_PERCENTAGE","inputs":[],"outputs":[{"name":"","type":"uint256","internalType":"uint256"}],"stateMutability":"view"},{"type":"function","name":"OWNER","inputs":[],"outputs":[{"name":"","type":"address","internalType":"address"}],"stateMutability":"view"},{"type":"function","name":"sendPayment","inputs":[{"name":"recipients","type":"address[]","internalType":"address[]"},{"name":"amounts","type":"uint256[]","internalType":"uint256[]"}],"outputs":[],"stateMutability":"payable"},{"type":"error","name":"Payment__ArrayLengthMismatch","inputs":[]},{"type":"error","name":"Payment__FailedToSendEther","inputs":[]},{"type":"error","name":"Payment__InvalidReceiverAddress","inputs":[]},{"type":"error","name":"Payment__NotEnoughEtherSent","inputs":[]},{"type":"error","name":"Payment__PaymentAmountMustBeGreaterThanZero","inputs":[]}],"bytecode":{"object":"0x608060405234801561001057600080fd5b506105bb806100206000396000f3fe6080604052600436106100375760003560e01c80620b46f8146100f0578063117803e314610118578063de27314b14610158576100c7565b366100c75760007361ec9cbc365b23ec035986a30fded12e94756b3b6001600160a01b0316346040515b60006040518083038185875af1925050503d806000811461009e576040519150601f19603f3d011682016040523d82523d6000602084013e6100a3565b606091505b50509050806100c557604051639fb8bc1760e01b815260040160405180910390fd5b005b60007361ec9cbc365b23ec035986a30fded12e94756b3b6001600160a01b031634604051610061565b3480156100fc57600080fd5b50610105600381565b6040519081526020015b60405180910390f35b34801561012457600080fd5b506101407361ec9cbc365b23ec035986a30fded12e94756b3b81565b6040516001600160a01b03909116815260200161010f565b6100c5610166366004610458565b8281146101865760405163bcea0df560e01b815260040160405180910390fd5b6000805b828110156101c0578383828181106101a4576101a46104c4565b90506020020135826101b691906104f0565b915060010161018a565b50803410156101e257604051637a5f17cb60e01b815260040160405180910390fd5b6000805b85811015610385576000878783818110610202576102026104c4565b90506020020160208101906102179190610509565b6001600160a01b03160361023e5760405163efcff6a960e01b815260040160405180910390fd5b848482818110610250576102506104c4565b9050602002013560000361027757604051639e55ab0960e01b815260040160405180910390fd5b60006064600387878581811061028f5761028f6104c4565b905060200201356102a09190610539565b6102aa9190610550565b90506102b681846104f0565b92506000818787858181106102cd576102cd6104c4565b905060200201356102de9190610572565b905060008989858181106102f4576102f46104c4565b90506020020160208101906103099190610509565b6001600160a01b03168260405160006040518083038185875af1925050503d8060008114610353576040519150601f19603f3d011682016040523d82523d6000602084013e610358565b606091505b505090508061037a57604051639fb8bc1760e01b815260040160405180910390fd5b5050506001016101e6565b506040516000907361ec9cbc365b23ec035986a30fded12e94756b3b9083908381818185875af1925050503d80600081146103dc576040519150601f19603f3d011682016040523d82523d6000602084013e6103e1565b606091505b505090508061040357604051639fb8bc1760e01b815260040160405180910390fd5b50505050505050565b60008083601f84011261041e57600080fd5b50813567ffffffffffffffff81111561043657600080fd5b6020830191508360208260051b850101111561045157600080fd5b9250929050565b6000806000806040858703121561046e57600080fd5b843567ffffffffffffffff8082111561048657600080fd5b6104928883890161040c565b909650945060208701359150808211156104ab57600080fd5b506104b88782880161040c565b95989497509550505050565b634e487b7160e01b600052603260045260246000fd5b634e487b7160e01b600052601160045260246000fd5b80820180821115610503576105036104da565b92915050565b60006020828403121561051b57600080fd5b81356001600160a01b038116811461053257600080fd5b9392505050565b8082028115828204841417610503576105036104da565b60008261056d57634e487b7160e01b600052601260045260246000fd5b500490565b81810381811115610503576105036104da56fea264697066735822122030f9cf5f8d8dfe64e991bdafdaab7f4556ec2cab6b5742623007df8cc4ba3ea264736f6c63430008170033","linkReferences":{}},"methodIdentifiers":{"FEE_PERCENTAGE()":"000b46f8","OWNER()":"117803e3","sendPayment(address[],uint256[])":"de27314b"},"id":20}