{
    "abi": [
        {
            "type": "fallback",
            "stateMutability": "payable"
        },
        {
            "type": "receive",
            "stateMutability": "payable"
        },
        {
            "type": "function",
            "name": "FEE_PERCENTAGE",
            "inputs": [],
            "outputs": [
                {
                    "name": "",
                    "type": "uint256",
                    "internalType": "uint256"
                }
            ],
            "stateMutability": "view"
        },
        {
            "type": "function",
            "name": "OWNER",
            "inputs": [],
            "outputs": [
                {
                    "name": "",
                    "type": "address",
                    "internalType": "address"
                }
            ],
            "stateMutability": "view"
        },
        {
            "type": "function",
            "name": "sendPayment",
            "inputs": [
                {
                    "name": "recipients",
                    "type": "address[]",
                    "internalType": "address[]"
                },
                {
                    "name": "amounts",
                    "type": "uint256[]",
                    "internalType": "uint256[]"
                }
            ],
            "outputs": [],
            "stateMutability": "payable"
        },
        {
            "type": "event",
            "name": "PaymentSent",
            "inputs": [
                {
                    "name": "sender",
                    "type": "address",
                    "indexed": true,
                    "internalType": "address"
                },
                {
                    "name": "receiver",
                    "type": "address",
                    "indexed": true,
                    "internalType": "address"
                },
                {
                    "name": "paymentAmount",
                    "type": "uint256",
                    "indexed": true,
                    "internalType": "uint256"
                },
                {
                    "name": "feesPaid",
                    "type": "uint256",
                    "indexed": false,
                    "internalType": "uint256"
                },
                {
                    "name": "amountSentToReceiver",
                    "type": "uint256",
                    "indexed": false,
                    "internalType": "uint256"
                }
            ],
            "anonymous": false
        },
        {
            "type": "error",
            "name": "Payment__ArrayLengthMismatch",
            "inputs": []
        },
        {
            "type": "error",
            "name": "Payment__FailedToSendEther",
            "inputs": []
        },
        {
            "type": "error",
            "name": "Payment__InvalidReceiverAddress",
            "inputs": []
        },
        {
            "type": "error",
            "name": "Payment__NotEnoughEtherSent",
            "inputs": []
        },
        {
            "type": "error",
            "name": "Payment__PaymentAmountMustBeGreaterThanZero",
            "inputs": []
        }
    ],
    "bytecode": {
        "object": "0x608060405234801561001057600080fd5b506106fa806100206000396000f3fe6080604052600436106100375760003560e01c80620b46f8146100f0578063117803e314610118578063de27314b14610158576100c7565b366100c75760007361ec9cbc365b23ec035986a30fded12e94756b3b6001600160a01b0316346040515b60006040518083038185875af1925050503d806000811461009e576040519150601f19603f3d011682016040523d82523d6000602084013e6100a3565b606091505b50509050806100c557604051639fb8bc1760e01b815260040160405180910390fd5b005b60007361ec9cbc365b23ec035986a30fded12e94756b3b6001600160a01b031634604051610061565b3480156100fc57600080fd5b50610105600381565b6040519081526020015b60405180910390f35b34801561012457600080fd5b506101407361ec9cbc365b23ec035986a30fded12e94756b3b81565b6040516001600160a01b03909116815260200161010f565b6100c5610166366004610564565b80518251146101885760405163bcea0df560e01b815260040160405180910390fd5b6000805b82518110156101c4578281815181106101a7576101a7610633565b6020026020010151826101ba919061065f565b915060010161018c565b50803410156101e657604051637a5f17cb60e01b815260040160405180910390fd5b6000805b84518110156104055760006001600160a01b031685828151811061021057610210610633565b60200260200101516001600160a01b03160361023f5760405163efcff6a960e01b815260040160405180910390fd5b83818151811061025157610251610633565b602002602001015160000361027957604051639e55ab0960e01b815260040160405180910390fd5b60006064600386848151811061029157610291610633565b60200260200101516102a39190610678565b6102ad919061068f565b90506102b9818461065f565b92506000818684815181106102d0576102d0610633565b60200260200101516102e291906106b1565b905060008784815181106102f8576102f8610633565b60200260200101516001600160a01b03168260405160006040518083038185875af1925050503d806000811461034a576040519150601f19603f3d011682016040523d82523d6000602084013e61034f565b606091505b505090508061037157604051639fb8bc1760e01b815260040160405180910390fd5b86848151811061038357610383610633565b602002602001015188858151811061039d5761039d610633565b60200260200101516001600160a01b0316336001600160a01b03167f577462848cc2ec95e5ef95bf0b154b97340221cd1002ea0511a3877a7f20fb8c86866040516103f2929190918252602082015260400190565b60405180910390a45050506001016101ea565b506040516000907361ec9cbc365b23ec035986a30fded12e94756b3b9083908381818185875af1925050503d806000811461045c576040519150601f19603f3d011682016040523d82523d6000602084013e610461565b606091505b505090508061048357604051639fb8bc1760e01b815260040160405180910390fd5b5050505050565b634e487b7160e01b600052604160045260246000fd5b604051601f8201601f1916810167ffffffffffffffff811182821017156104c9576104c961048a565b604052919050565b600067ffffffffffffffff8211156104eb576104eb61048a565b5060051b60200190565b600082601f83011261050657600080fd5b8135602061051b610516836104d1565b6104a0565b8083825260208201915060208460051b87010193508684111561053d57600080fd5b602086015b848110156105595780358352918301918301610542565b509695505050505050565b6000806040838503121561057757600080fd5b823567ffffffffffffffff8082111561058f57600080fd5b818501915085601f8301126105a357600080fd5b813560206105b3610516836104d1565b82815260059290921b840181019181810190898411156105d257600080fd5b948201945b838610156106065785356001600160a01b03811681146105f75760008081fd5b825294820194908201906105d7565b9650508601359250508082111561061c57600080fd5b50610629858286016104f5565b9150509250929050565b634e487b7160e01b600052603260045260246000fd5b634e487b7160e01b600052601160045260246000fd5b8082018082111561067257610672610649565b92915050565b808202811582820484141761067257610672610649565b6000826106ac57634e487b7160e01b600052601260045260246000fd5b500490565b818103818111156106725761067261064956fea2646970667358221220d31b247ff5fafccda50bb3580b8a8ffdf7704ebf06742d3f9a4e926cf7e4bcff64736f6c63430008170033",
        "linkReferences": {}
    },
    "methodIdentifiers": {
        "FEE_PERCENTAGE()": "000b46f8",
        "OWNER()": "117803e3",
        "sendPayment(address[],uint256[])": "de27314b"
    },
    "id": 20
}